:020000040000fa
:080000000002040000000000f2
:020000040000fa
:04000800ec02000006
:020000040000fa
:04000c00ec02000002
:020000040000fa
:04001000ec020000fe
:020000040000fa
:04001400ec020000fa
:020000040000fa
:04001800ec020000f6
:020000040000fa
:04001c00ec020000f2
:020000040000fa
:04002000ec020000ee
:020000040000fa
:04002400ec020000ea
:020000040000fa
:04002800ec020000e6
:020000040000fa
:04002c00ec020000e2
:020000040000fa
:04003000ec020000de
:020000040000fa
:04003400ec020000da
:020000040000fa
:04003800ec020000d6
:020000040000fa
:04003c00ec020000d2
:020000040000fa
:04004000ec020000ce
:020000040000fa
:04004400ec020000ca
:020000040000fa
:04004800ec020000c6
:020000040000fa
:04004c00ec020000c2
:020000040000fa
:04005000ec020000be
:020000040000fa
:04005400c8020000de
:020000040000fa
:04005800ec020000b6
:020000040000fa
:04005c00ec020000b2
:020000040000fa
:04006000ec020000ae
:020000040000fa
:04006400ec020000aa
:020000040000fa
:04006800ec020000a6
:020000040000fa
:04006c00ec020000a2
:020000040000fa
:04007000ec0200009e
:020000040000fa
:04007400ec0200009a
:020000040000fa
:04007800ec02000096
:020000040000fa
:04007c00ec02000092
:020000040000fa
:04008000ec0200008e
:020000040000fa
:04008400ec0200008a
:020000040000fa
:04008800ec02000086
:020000040000fa
:04008c00ec02000082
:020000040000fa
:04009000ec0200007e
:020000040000fa
:04009400ec0200007a
:020000040000fa
:04009800ec02000076
:020000040000fa
:04009c00ec02000072
:020000040000fa
:0400a000ec0200006e
:020000040000fa
:0400a400ec0200006a
:020000040000fa
:0400a800ec02000066
:020000040000fa
:0400ac00ec02000062
:020000040000fa
:0400b000ec0200005e
:020000040000fa
:0400b400ec0200005a
:020000040000fa
:0400b800ec02000056
:020000040000fa
:0400bc00ec02000052
:020000040000fa
:0400c000ec0200004e
:020000040000fa
:0400c400ec0200004a
:020000040000fa
:0400c800ec02000046
:020000040000fa
:0400cc00ec02000042
:020000040000fa
:0400d000ec0200003e
:020000040000fa
:0400d400ec0200003a
:020000040000fa
:0400d800ec02000036
:020000040000fa
:0400dc00ec02000032
:020000040000fa
:0400e000ec0200002e
:020000040000fa
:0400e400ec0200002a
:020000040000fa
:0400e800ec02000026
:020000040000fa
:0400ec00ec02000022
:020000040000fa
:0400f000ec0200001e
:020000040000fa
:0400f400ec0200001a
:020000040000fa
:0400f800ec02000016
:020000040000fa
:0400fc00ec02000012
:020000040000fa
:04010000ec0200000d
:020000040000fa
:04010400ec02000009
:020000040000fa
:04010800ec02000005
:020000040000fa
:04010c00ec02000001
:020000040000fa
:04011000ec020000fd
:020000040000fa
:04011400ec020000f9
:020000040000fa
:04011800ec020000f5
:020000040000fa
:04011c00ec020000f1
:020000040000fa
:04012000ec020000ed
:020000040000fa
:04012400ec020000e9
:020000040000fa
:04012800ec020000e5
:020000040000fa
:04012c00ec020000e1
:020000040000fa
:04013000ec020000dd
:020000040000fa
:04013400ec020000d9
:020000040000fa
:04013800ec020000d5
:020000040000fa
:04013c00ec020000d1
:020000040000fa
:04014000ec020000cd
:020000040000fa
:04014400ec020000c9
:020000040000fa
:04014800ec020000c5
:020000040000fa
:04014c00ec020000c1
:020000040000fa
:04015000ec020000bd
:020000040000fa
:04015400ec020000b9
:020000040000fa
:04015800ec020000b5
:020000040000fa
:04015c00ec020000b1
:020000040000fa
:04016000ec020000ad
:020000040000fa
:04016400ec020000a9
:020000040000fa
:04016800ec020000a5
:020000040000fa
:04016c00ec020000a1
:020000040000fa
:04017000ec0200009d
:020000040000fa
:04017400ec02000099
:020000040000fa
:04017800ec02000095
:020000040000fa
:04017c00ec02000091
:020000040000fa
:04018000ec0200008d
:020000040000fa
:04018400ec02000089
:020000040000fa
:04018800ec02000085
:020000040000fa
:04018c00ec02000081
:020000040000fa
:04019000ec0200007d
:020000040000fa
:04019400ec02000079
:020000040000fa
:04019800ec02000075
:020000040000fa
:04019c00ec02000071
:020000040000fa
:0401a000ec0200006d
:020000040000fa
:0401a400ec02000069
:020000040000fa
:0401a800ec02000065
:020000040000fa
:0401ac00ec02000061
:020000040000fa
:04020800ec02000004
:020000040000fa
:04020c00ec02000000
:020000040000fa
:04021000ec020000fc
:020000040000fa
:04021400ec020000f8
:020000040000fa
:04021800ec020000f4
:020000040000fa
:04021c00ec020000f0
:020000040000fa
:04022000ec020000ec
:020000040000fa
:04022400ec020000e8
:020000040000fa
:04022800ec020000e4
:020000040000fa
:04022c00ec020000e0
:020000040000fa
:04023000ec020000dc
:020000040000fa
:04023400ec020000d8
:020000040000fa
:04023800ec020000d4
:020000040000fa
:04023c00ec020000d0
:020000040000fa
:04024000ec020000cc
:020000040000fa
:04024400ec020000c8
:020000040000fa
:04024800ec020000c4
:020000040000fa
:04024c00ec020000c0
:020000040000fa
:04025000ec020000bc
:020000040000fa
:04025400ec020000b8
:020000040000fa
:04025800ec020000b4
:020000040000fa
:04025c00ec020000b0
:020000040000fa
:04026000ec020000ac
:020000040000fa
:04026400ec020000a8
:020000040000fa
:04026800ec020000a4
:020000040000fa
:04026c00ec020000a0
:020000040000fa
:04027000ec0200009c
:020000040000fa
:04027400ec02000098
:020000040000fa
:04027800ec02000094
:020000040000fa
:04027c00ec02000090
:020000040000fa
:04028000ec0200008c
:020000040000fa
:04028400ec02000088
:020000040000fa
:04028800ec02000084
:020000040000fa
:04028c00ec02000080
:020000040000fa
:04029000ec0200007c
:020000040000fa
:04029400ec02000078
:020000040000fa
:04029800ec02000074
:020000040000fa
:04029c00ec02000070
:020000040000fa
:0402a000ec0200006c
:020000040000fa
:0402a400ec02000068
:020000040000fa
:0402a800ec02000064
:020000040000fa
:0402ac00ec02000060
:020000040000fa
:0402b000ec0200005c
:020000040000fa
:0402b400ec02000058
:020000040000fa
:0402b800ec02000054
:020000040000fa
:0402bc00ec02000050
:020000040000fa
:0402c000ec0200004c
:020000040000fa
:0402c400ec02000048
:020000040000fa
:0402c800ec02000044
:020000040000fa
:0402cc00ec02000040
:020000040000fa
:0402d000ec0200003c
:020000040000fa
:0402d400ec02000038
:020000040000fa
:0402d800ec02000034
:020000040000fa
:0402dc00ec02000030
:020000040000fa
:0402e000ec0200002c
:020000040000fa
:0402e400ec02000028
:020000040000fa
:0402e800ec02000024
:020000040000fa
:0402ec00ec02000020
:020000040000fa
:0402f000ec0200001c
:020000040000fa
:0402f400ec02000018
:020000040000fa
:0402f800ec02000014
:020000040000fa
:0402fc00ec02000010
:020000040000fa
:04030000ec0200000b
:020000040000fa
:04030400ec02000007
:020000040000fa
:04030800ec02000003
:020000040000fa
:04030c00ec020000ff
:020000040000fa
:04031000ec020000fb
:020000040000fa
:04031400ec020000f7
:020000040000fa
:04031800ec020000f3
:020000040000fa
:04031c00ec020000ef
:020000040000fa
:04032000ec020000eb
:020000040000fa
:04032400ec020000e7
:020000040000fa
:04032800ec020000e3
:020000040000fa
:04032c00ec020000df
:020000040000fa
:04033000ec020000db
:020000040000fa
:04033400ec020000d7
:020000040000fa
:04033800ec020000d3
:020000040000fa
:04033c00ec020000cf
:020000040000fa
:04034000ec020000cb
:020000040000fa
:04034400ec020000c7
:020000040000fa
:04034800ec020000c3
:020000040000fa
:04034c00ec020000bf
:020000040000fa
:04035000ec020000bb
:020000040000fa
:04035400ec020000b7
:020000040000fa
:04035800ec020000b3
:020000040000fa
:04035c00ec020000af
:020000040000fa
:04036000ec020000ab
:020000040000fa
:04036400ec020000a7
:020000040000fa
:04036800ec020000a3
:020000040000fa
:04036c00ec0200009f
:020000040000fa
:04037000ec0200009b
:020000040000fa
:04037400ec02000097
:020000040000fa
:04037800ec02000093
:020000040000fa
:04037c00ec0200008f
:020000040000fa
:04038000ec0200008b
:020000040000fa
:04038400ec02000087
:020000040000fa
:04038800ec02000083
:020000040000fa
:04038c00ec0200007f
:020000040000fa
:04039000ec0200007b
:020000040000fa
:04039400ec02000077
:020000040000fa
:04039800ec02000073
:020000040000fa
:04039c00ec0200006f
:020000040000fa
:0403a000ec0200006b
:020000040000fa
:0403a400ec02000067
:020000040000fa
:0403a800ec02000063
:020000040000fa
:0403ac00ec0200005f
:020000040000fa
:100400006f8020000eff20000e0188000000000019
:10041000000020000000e000020032000001200087
:1004200020028800140007006d0007000000e000b3
:1004300003003a0040912000010020000200370034
:100440000000200001002000810f70000100320038
:1004500014000700000020000000e000020032004d
:1004600000000200000000002a0902000000000055
:100470000040da000000fe004440a900c00a20004d
:100480000000e0000300320000002000a00188000e
:100490004440a800000006008a1f78008b1f7800e7
:1004a0000000060091018800800478000000eb0045
:1004b0001a003700e284440032a0b4009905ba0063
:1004c000e284440032a0b4009906ba00e2844400f9
:1004d00032a0b4000006eb00476fde00fd07b2005b
:1004e000636ce10003003a00ebff07000000eb0043
:1004f0000a003700606ce10004003a00005deb0088
:100500008b05e900fdff3e00040037006168e10053
:10051000010032000086eb000b00070019c7ba008b
:100520001905ba000e04e00003003a000a00e000da
:10053000e0ff3a0000000600fe07b2009e018800be
:100540008a047800f5ff3700395dba008b05e900b1
:100550000c003200295dba008b05e900080032006a
:100560000c00e00003003a00e284440032a0b40032
:10057000f5ff370019ddba008b05e900faff3a00f4
:100580008904e800e184440032a0b40000000600c1
:100590003600f800809fbe00829fbe00849fbe0090
:1005a000869fbe000200fa0030118000004f7800e4
:1005b0001e4078002c0207008560a9000080fa0028
:1005c0004f03be004f02be004f01be004f00be00f1
:1005d0003600f900004006000040da000000fe008e
:0405e0000000050012
:020000040000fa
:1005e4003a0d00000a0000004c430000445f000084
:1005f400636c00006561000072280000290d000092
:100604000a0000004c430000445f000064690000dd
:10061400737000006c61000079280000224800001b
:10062400656c00006c6f0000205700006f720000c2
:100634006c64000021220000290d00000a00000063
:10064400486500006c6c00006f200000576f0000cc
:10065400726c000064210000004c00004344000060
:100664005f6800006f6d000065280000290d000020
:100674000a0000004c430000445f0000666900006b
:1006840072730000744c0000696e0000652800005d
:10069400290d00000a0000004c430000445f0000e4
:1006a40073650000636f00006e6400004c69000015
:1006b4006e650000282900000d0a000000490000b2
:1006c4006e760000616c000069640000204900003f
:1006d4006e700000757400000d0a00000000000038
:1006e400312e000057610000746500007220000084
:1006f40020200000322e00004461000074610000dc
:10070400003300002e5700006946000069200000f5
:1007140020200000203400002e4d00006f720000e5
:100724006500000057410000544500005246000097
:08073400414d0000000000002f
:020000040000fa
:10073c000000fa000040eb00801f78008043eb00c3
:10074c000043eb0015c0b30014c0b30013c0b300da
:10075c000041eb008040eb000040eb00f400070090
:10076c008f87e900500020009702070010c0b300eb
:10077c00801f780017c0b30016c0b30015c0b300bb
:10078c000042eb008041eb000041eb008040eb00ad
:10079c000040eb00e60007008f87e9001000200006
:1007ac00890207000040eb00801f780017c0b300df
:1007bc0016c0b3008042eb000042eb008041eb001e
:1007cc000041eb008040eb000040eb00d80007003c
:1007dc008f87e900100020007b0207000080fa00e0
:1007ec00000006000000fa0010c0b300801f780063
:1007fc008043eb000043eb008042eb000042eb0037
:10080c008041eb000041eb008040eb000040eb002e
:10081c00c70007008f87e900100020006a0207005c
:10082c000080fa00000006000000fa000040eb0017
:10083c00801f780017c0b3000043eb008042eb0030
:10084c000042eb008041eb000041eb008040eb00ec
:10085c000040eb00b60007008f87e9000080fa002b
:10086c00000006000000fa000040eb00801f78003a
:10087c008043eb000043eb008042eb000042eb00b6
:10088c008041eb000041eb0011c0b3000040eb00d5
:10089c00a70007008f87e9000080fa00000006001f
:1008ac000000fa000040eb00801f78008043eb0052
:1008bc000043eb008042eb000042eb008041eb0078
:1008cc0012c0b30011c0b3000040eb009800070049
:1008dc008f87e9000080fa00000006000200fa0091
:1008ec00004f78001e4078000004e0000d0032003c
:1008fc0010c0b300801f780017c0b30016c0b3003f
:10090c0015c0b3000042eb008041eb000041eb004e
:10091c008040eb000040eb00850007008f87e9006a
:10092c000c0037000040eb00801f78008043eb0088
:10093c0016c0b30015c0b3000042eb008041eb00c1
:10094c000041eb008040eb000040eb00780007001a
:10095c008f87e9000080fa00000006000c00fa0006
:10096c00500798000000eb00000f7800680037007b
:10097c001e007800de0090000080400010407800df
:10098c008000fb00000820000080600000f0a70041
:10099c000000ea000000ea004f00de00204798004b
:1009ac001e007800de0090000080400010407800af
:1009bc008000fb00000420000080600000f0a70015
:1009cc000000ea000000ea004f00de00304798000b
:1009dc001e007800de00900000804000104078007f
:1009ec008000fb00000220000080600000f0a700e7
:1009fc000000ea000000ea004f00de0040479800cb
:100a0c001e007800de00900000804000104078004e
:100a1c000000fb007000600000f0a7000000ea007e
:100a2c000000ea004f00de00504798001e007800de
:100a3c00de00900000804000104078000000fb00b9
:100a4c006800600000f0a7000000ea000000ea0067
:100a5c004f00de00604798001e007800de0090001a
:100a6c0000804000104078000000fb006400600033
:100a7c0000f0a7000000ea000000ea004f00de00d2
:100a8c00704798001e007800de0090000080400047
:100a9c00104078000000fb006200600000f0a7002e
:100aac000000ea000000ea004f00de00004f980052
:100abc001e007800de00900000804000104078009e
:100acc000000fb006100600000f0a7000000ea00dd
:100adc000000ea004f00de00104f98001e0fe800e7
:100aec001e489000801f78008e4b90007e43900033
:100afc00ee4290005e429000ce4190003e4190004c
:100b0c00ae40900010c0b300090007008f87e900c9
:100b1c001e007800de00900000804000104078003d
:100b2c000004e00092ff3a000080fa00000006008a
:100b3c000800fa00004f78001147980022479800ef
:100b4c0033479800444798005547980066479800eb
:100b5c00774798001e80fb00610060004500dd00b7
:100b6c0062168000f1fd2f00810061000100700011
:100b7c0060168800cc62a9001e4090000080fb002b
:100b8c004f00dd0062168000f1ff2700810061003c
:100b9c0001007000601688002e4090000080fb0061
:100bac00610060004e00dd0062168000f1ff2b003a
:100bbc008100610001007000601688003e409000ca
:100bcc000080fb00610060004d00dd0062168000bb
:100bdc00f1ff2d008100610001007000601688009b
:100bec004e4090000080fb00610060004c00dd0076
:100bfc0062168000f1ff2e00810061000100700080
:100c0c00601688005e4090000080fb006100600070
:100c1c004b00dd0062168000f17f2f008100610027
:100c2c0001007000601688006e4090000080fb0090
:100c3c00610060004a00dd0062168000f1bf2f00e9
:100c4c008100610001007000601688007e409000f9
:100c5c000080fb00610060004900dd00621680002e
:100c6c00f1df2f0081006100010070006016880028
:100c7c000ef897000080fb00610060004800dd006a
:100c8c0062168000f1ef2f008100610001007000fe
:100c9c0060168800c402a800c402a9000080fa00f3
:100cac00000006000800fa00004f78001147980079
:100cbc0022479800334798004447980055479800be
:100ccc0066479800774798001e80fb006100600023
:100cdc004500dd0062168000f1fd2f0081006100ef
:100cec000100700060168800cc62a8001e409000c5
:100cfc000080fb004f00dd0062168000f1ff270032
:100d0c008100610001007000601688002e40900088
:100d1c000080fb00610060004e00dd006216800068
:100d2c00f1ff2b008100610001007000601688004b
:100d3c003e4090000080fb00610060004d00dd0033
:100d4c0062168000f1ff2d0081006100010070002f
:100d5c00601688004e4090000080fb00610060002f
:100d6c004c00dd0062168000f1ff2e008100610056
:100d7c0001007000601688005e4090000080fb004f
:100d8c00610060004b00dd0062168000f17f2f00d7
:100d9c008100610001007000601688006e409000b8
:100dac000080fb00610060004a00dd0062168000dc
:100dbc00f1bf2f00810061000100700060168800f7
:100dcc007e4090000080fb00610060004900dd0067
:100ddc0062168000f1df2f008100610001007000bd
:100dec00601688000ef897000080fb006100600020
:100dfc004800dd0062168000f1ef2f0081006100d9
:100e0c000100700060168800c402a800c402a9008a
:100e1c000080fa00000006000000fa0071fe0700d6
:100e2c0020372800cdfe07009dfe07003038280033
:100e3c00cafe07000040eb00a8fe07000080fa0085
:100e4c00000006000000fa0066fe0700403928008a
:100e5c00c2fe07000080fa00000006000200fa0043
:100e6c00004f78001e00fb0020118800202f280066
:100e7c002f0007001e00fb0031062000810f5000e0
:100e8c001100320031062000810f500007003c0099
:100e9c0011032000810f50001800320021032000a4
:100eac00810f5000190032001c0037004106200051
:100ebc00810f50000800320081062000810f500085
:100ecc000a00320015003700602f280018000700b8
:100edc0044fe0700140037004030280014000700bf
:100eec00203228009dfe07000f003700f03228004a
:100efc000f0007004cfe07000b003700c033280022
:100f0c000b00070057fe070007003700e0342800ed
:100f1c000700070062fe07000300370010362800a8
:100f2c0003000700000000000080fa00000006002b
:100f3c000400fa00100798000000eb00000f780086
:100f4c000d0037000000000011118000001020007f
:100f5c00008060000000e000fbff32001e00780003
:100f6c009e00900000804000104078000000fb00c4
:100f7c00201188001e0fe8001e0078009e009000d3
:100f8c0000804000104078000004e000edff3a00c3
:100f9c000080fa00000006000000fa0005000700bf
:100fac00120007002c0007003c0007000080fa002c
:100fbc00000006000000fa00cc22ef000080eb00dd
:100fcc00401688000080eb0000168800c8c2a900fb
:100fdc00e224ef00e024ef000080fa00000006009d
:100fec000000fa000080fa00000006000000fa0081
:100ffc00c8e2a90000000000c842a80000000000e0
:10100c002022ef002222ef008560a900410580001c
:10101c00f0ff2800808060000000230001007000b9
:10102c00400588009560a8009001200040118800c0
:10103c0021e2a8002342a80000000000111180004a
:10104c0000102000008060000000e000fbff320078
:10105c000080fa00000006000000fa00c9e2a900b6
:10106c00c9c2a900c9a2a900c982a900c962a90064
:10107c00c942a900c922a900c902a900c8a2a90095
:10108c00c862a900c002a900a9fd07000000000069
:10109c00d4fd07000080fa00000006000000fa00f2
:1010ac00c082a800c062a800c042a800c022a8004c
:1010bc000000000058ff07000080fa000000060046
:1010cc000000fa0020168000700060000000e000b4
:1010dc000800320004c8bf000004e0000500320024
:1010ec00ccc2a80010002000104088000468ef005b
:1010fc002000370020168000680060000000e0002f
:10110c000700320004c8bf000004e00004003200f5
:10111c0020002000104088000468ef001500370004
:10112c0020168000640060000000e0000700320020
:10113c0004c8bf000004e0000400320030002000ae
:10114c00104088000468ef000a0037002016800069
:10115c00620060000000e0000600320004c8bf001e
:10116c000004e00003003200400020001040880022
:10117c000468ef004180200091407800104080000e
:10118c00020007000080fa00000006000400fa00cc
:10119c00000f7800214798001e0078000000e00046
:1011ac00070032002e4090000004e00004003200e2
:1011bc001e007800e10f500001003a0021ff0700eb
:1011cc000080fa00000006000600fa0020079800d4
:1011dc002e00900000004000000f78000a0037003d
:1011ec00c011200010079800030037001e0090006b
:1011fc000000e900100798001e0090000000e000bd
:10120c00faff3c001e0fe9001e0078000000e00011
:0c121c00f3ff3c000080fa000000060018
:020000040000fa
:1012280000080000020000000000000002080000a2
:101238000200000000000000040800000200000096
:0c12480002000000010000000000000097
:020000040000fa
:101254000000fa0052ff07009bff0700feff370063
:020000040000fa
:0200000401f009
:04000800ffff0000f6
:020000040000fa
:0200000401f009
:04000c00f8ff0000f9
:020000040000fa
:0200000401f009
:04001000bfff00002e
:020000040000fa
:0200000401f009
:040014005fff00008a
:020000040000fa
:0200000401f009
:04001800ffff0000e6
:020000040000fa
:0200000401f009
:04001c00ffff0000e2
:00000001FF
